:020000040800F2
:1000000000000220890900081109000817090008EA
:100010001D09000823090008290900080000000044
:100020000000000000000000000000002F09000890
:100030003D090008000000004B09000859090008AC
:10004000D9090008D9090008D9090008D909000808
:10005000D9090008D9090008D9090008D9090008F8
:10006000D9090008D9090008D9090008D9090008E8
:10007000D9090008D9090008D9090008D9090008D8
:10008000D9090008D9090008D9090008D9090008C8
:10009000D9090008D9090008D9090008D9090008B8
:1000A000D9090008D9090008D9090008D9090008A8
:1000B000D9090008D9090008D9090008D909000898
:1000C000D9090008D9090008D9090008D909000888
:1000D000D9090008D9090008D9090008D909000878
:1000E000D9090008D9090008D9090008D909000868
:1000F000D9090008D9090008D9090008D909000858
:10010000D9090008D9090008D9090008D909000847
:10011000D9090008D9090008D9090008D909000837
:10012000D9090008D9090008D9090008D909000827
:10013000D90900080000000000000000D9090008EB
:10014000D9090008D9090008D9090008D909000807
:10015000D9090008D9090008D9090008D9090008F7
:10016000D9090008D9090008D9090008D9090008E7
:10017000D9090008D9090008D909000800000000C1
:1001800000000000D9090008000000000000000085
:10019000D90900080000000000000000D90900088B
:1001A000000000000000000000000000D909000865
:1001B000D9090008D9090008D9090008D909000897
:0401C000D909000851
:1001C40010B5054C237833B9044B13B10448AFF38D
:1001D40000800123237010BD1800002000000000DF
:1001E400202B000808B5034B1BB103490348AFF3A8
:1001F400008008BD000000001C000020202B000827
:1002040053B94AB9002908BF00281CBF4FF0FF3179
:100214004FF0FF3000F06EB9ADF1080C6DE904CE7B
:1002240000F006F8DDF804E0DDE9022304B07047CD
:100234002DE9F047089D04468C46002B40F083804E
:100244008A42174647D9B2FA82F242B1C2F120007B
:1002540024FA00F09140974040EA010C94404FEAA0
:100264001748230CBCFBF8F61FFA87FE08FB16C1DF
:1002740043EA014306FB0EF1994209D9FB1806F142
:10028400FF3080F01981994240F21681023E3B44CE
:100294005B1AA4B2B3FBF8F008FB103344EA03443E
:1002A40000FB0EFEA64509D93C1900F1FF3380F08E
:1002B4000581A64540F2028102383C4440EA0640EA
:1002C400A4EB0E0400261DB1D4400023C5E900436D
:1002D4003146BDE8F08702B9FFDEB2FA82F2002AA5
:1002E40050D1CB1B4FEA174E1FFA87F80126B3FBF8
:1002F400FEFC210C0EFB1C3341EA034108FB0CF30A
:100304008B4207D979180CF1FF3002D28B4200F2EC
:10031400E9808446C91AA3B2B1FBFEF00EFB1011AA
:1003240043EA014408FB00F8A04507D93C1900F151
:10033400FF3302D2A04500F2D9801846A4EB08048A
:1003440040EA0C40BFE78B4209D9002D00F0B18090
:100354000026C5E9000130463146BDE8F087B3FA0E
:1003640083F6002E4AD18B4202D3824200F2B88037
:10037400841A61EB030101208C46002DA8D0C5E945
:10038400004CA5E7C2F1200320FA03F6974001FAD6
:1003940002F04FEA174ED9403043030CB1FBFEF68E
:1003A4001FFA87F80EFB161143EA014306FB08F116
:1003B400994204FA02F409D9FB1806F1FF3C80F0D3
:1003C4008D80994240F28A80023E3B445B1A81B29E
:1003D400B3FBFEF00EFB103341EA034100FB08F3CC
:1003E4008B4207D9791800F1FF3C73D28B4271D943
:1003F40002383944CB1A40EA064678E7C6F1200CA5
:1004040003FA06F422FA0CF31C4320FA0CF701FA5F
:1004140006F34FEA144E21FA0CF11F433B0CB1FBD7
:10042400FEF91FFA84F80EFB191143EA014109FB96
:1004340008FA8A4502FA06F200FA06F308D96118A6
:1004440009F1FF3048D28A4546D9A9F1020921446D
:10045400A1EB0A01BFB2B1FBFEF00EFB101147EA9B
:10046400014700FB08F8B84507D9E71900F1FF3147
:100474002ED2B8452CD90238274440EA0940A7EBCC
:100484000807A0FB02894F45C64649461AD317D030
:100494005DB1B3EB0E0267EB010707FA0CFCF24007
:1004A4004CEA0202F740C5E9002700263146BDE8C0
:1004B400F0872E4628460BE70646E9E61846FDE691
:1004C4004345E5D2B8EB020E69EB04010138DFE7DE
:1004D4000846D2E760468DE78146B9E7664675E788
:1004E40030464AE7ACF1020C394413E702383C4485
:1004F40024E700BF704700BF80B598B004AF03463F
:10050400FB800623FB64FA88FB6C02FA03F3A7F86A
:100514004A3007F108034022FF21184602F0F6FA98
:10052400B7F84A204FF47A7302934023019307F1FA
:10053400080300930223A021044800F0A1FE052033
:1005440000F0BCFA00BF5037BD4680BD3400002027
:1005540080B586B004AF00F03FFA00F08BF800F0ED
:1005640029F900F0F9F800237B6007E07B689BB26F
:100574001846FFF7C1FF7B6801337B607B68B3F5E6
:10058400007FF3DB00233B600BE03B68DBB20A3304
:10059400D9B2314A3B6813440A461A703B680133A6
:1005A4003B603B68632BF0DD4FF47A730293402386
:1005B4000193294B009302230022A021274800F035
:1005C4005FFE052000F07AFA4FF47A730293062353
:1005D4000193234B009302238122A0211F4800F0A2
:1005E4004FFE052000F06AFA4FF47A730293032356
:1005F40001931C4B00930223BD22A021174800F055
:100604003FFE052000F05AFA4FF47A730293402318
:100614000193154B009302230022A0210F4800F000
:1006240029FF4FF47A730293052301930F4B009330
:1006340002238122A021094800F01CFF4FF47A73A1
:100644000293022301930A4B00930223BD22A021AB
:10065400024800F00FFFFEE7F800002034000020FD
:10066400000000200800002088000020EC0000208A
:10067400F400002080B594B000AF07F11C033422CD
:100684000021184602F042FA07F1080300221A601A
:100694005A609A60DA601A6100237B602C4B1B6CF1
:1006A4002B4A43F080531364294B1B6C03F0805393
:1006B4007B607B6800233B60264B1B68254A43F420
:1006C40040431360234B1B6803F440433B603B6887
:1006D4000123FB614FF480333B6202237B634FF4BD
:1006E4008003BB630423FB63B4233B6402237B6466
:1006F4000223BB640223FB6407F11C03184601F0C8
:1007040043FF0346002B01D000F08AF801F034FCCB
:100714000346002B01D000F083F80F23BB600223B3
:10072400FB6000233B614FF4A0537B614FF4805383
:10073400BB6107F108030521184601F06DFC03466F
:10074400002B01D000F06CF800BF5037BD4680BDCF
:10075400003802400070004080B500AF124B134ACD
:100764001A60114B124A5A600F4B00229A600E4BCA
:100774000022DA600C4B4FF480421A610A4B0022CB
:100784005A61094B00229A61074B0022DA61064B39
:1007940000221A62044800F02FFC0346002B01D00B
:1007A40000F03EF800BF80BD34000020005400403B
:1007B400801A060080B485B000AF0023FB60174B9D
:1007C4001B6B164A43F080031363144B1B6B03F03B
:1007D4008003FB60FB680023BB60104B1B6B0F4A5C
:1007E40043F0010313630D4B1B6B03F00103BB6068
:1007F400BB6800237B60094B1B6B084A43F0020370
:100804001363064B1B6B03F002037B607B6800BF22
:100814001437BD465DF8047B704700BF00380240C2
:1008240080B400AF72B600BFFEE7000080B483B0AE
:1008340000AF00237B60104B5B6C0F4A43F4804392
:1008440053640D4B5B6C03F480437B607B68002333
:100854003B60094B1B6C084A43F080531364064BFE
:100864001B6C03F080533B603B6800BF0C37BD46F4
:100874005DF8047B704700BF0038024080B58AB041
:1008840000AF786007F1140300221A605A609A607E
:10089400DA601A617B681B68194A93422BD10023E2
:1008A4003B61184B1B6B174A43F002031363154B50
:1008B4001B6B03F002033B613B69C0237B61122382
:1008C400BB610023FB6103233B6204237B6207F1CA
:1008D400140319460C4800F0FBF90023FB60094B94
:1008E4001B6C084A43F400131364064B1B6C03F49B
:1008F4000013FB60FB6800BF2837BD4680BD00BF06
:1009040000540040003802400004024080B400AFAC
:10091400FEE780B400AFFEE780B400AFFEE780B42A
:1009240000AFFEE780B400AFFEE780B400AF00BFC5
:10093400BD465DF8047B704780B400AF00BFBD4680
:100944005DF8047B704780B400AF00BFBD465DF81E
:10095400047B704780B500AF00F090F800BF80BD05
:1009640080B400AF064BD3F88830054A43F47003D3
:10097400C2F8883000BFBD465DF8047B704700BFF5
:1009840000ED00E0DFF834D00D480E490E4A002394
:1009940002E0D458C4500433C4188C42F9D30B4A2F
:1009A4000B4C002301E013600432A242FBD3FFF797
:1009B400D7FF02F087F8FFF7CBFD70470000022055
:1009C4000000002018000020602B00081800002000
:1009D40060010020FEE7000080B500AF0E4B1B68ED
:1009E4000D4A43F4007313600B4B1B680A4A43F42B
:1009F40080631360084B1B68074A43F480731360D9
:100A0400032000F031F90F2000F008F8FFF70EFF83
:100A14000023184680BD00BF003C024080B582B070
:100A240000AF7860124B1A68124B1B7819464FF4CA
:100A34007A73B3FBF1F3B2FBF3F3184600F03BF91E
:100A44000346002B01D001230EE07B680F2B0AD84C
:100A5400002279684FF0FF3000F011F9064A7B68F4
:100A64001360002300E0012318460837BD4680BD0B
:100A74000C000020140000201000002080B400AFFF
:100A8400064B1B781A46064B1B681344044A136032
:100A940000BFBD465DF8047B704700BF1400002012
:100AA4005C01002080B400AF034B1B681846BD46B0
:100AB4005DF8047B704700BF5C01002080B584B002
:100AC40000AF7860FFF7EEFFB8607B68FB60FB68FF
:100AD400B3F1FF3F05D00A4B1B781A46FB68134459
:100AE400FB6000BFFFF7DEFF0246BB68D31AFA685B
:100AF4009A42F7D800BF00BF1037BD4680BD00BF83
:100B04001400002080B485B000AF78607B6803F0E7
:100B14000703FB600C4BDB68BB60BA684FF6FF034E
:100B24001340BB60FB681A02BB68134343F0BF6306
:100B340043F40033BB60044ABB68D36000BF14377E
:100B4400BD465DF8047B704700ED00E080B400AF63
:100B5400044BDB681B0A03F007031846BD465DF827
:100B6400047B704700ED00E080B483B000AF03461F
:100B74003960FB7197F90730002B0ADB3B68DAB266
:100B84000C4997F907301201D2B20B4483F80023C1
:100B94000AE03B68DAB20849FB7903F00F03043B2F
:100BA4001201D2B20B441A7600BF0C37BD465DF871
:100BB400047B704700E100E000ED00E080B489B000
:100BC40000AFF860B9607A60FB6803F00703FB616B
:100BD400FB69C3F10703042B28BF0423BB61FB6932
:100BE4000433062B02D9FB69033B00E000237B613D
:100BF4004FF0FF32BB6902FA03F3DA43BB681A40D1
:100C04007B699A404FF0FF317B6901FA03F3D943C2
:100C14007B680B40134318462437BD465DF8047BBC
:100C24007047000080B582B000AF78607B68013BFC
:100C3400B3F1807F01D301230FE00A4A7B68013BB3
:100C440053600F214FF0FF30FFF78EFF054B00225A
:100C54009A60044B07221A60002318460837BD46E1
:100C640080BD00BF10E000E080B582B000AF7860C6
:100C74007868FFF747FF00BF0837BD4680BD80B5E1
:100C840086B000AF0346B9607A60FB7300237B61D2
:100C9400FFF75CFF78617A68B9687869FFF78EFFBF
:100CA400024697F90F3011461846FFF75DFF00BF63
:100CB4001837BD4680BD80B582B000AF78607868D3
:100CC400FFF7B0FF034618460837BD4680BD000055
:100CD40080B489B000AF7860396000237B61002361
:100CE4003B610023BB610023FB6165E10122FB69D9
:100CF40002FA03F37B613B681B687A6913403B612A
:100D04003A697B699A4240F054813B685B6803F01E
:100D14000303012B05D03B685B6803F00303022B3C
:100D240030D17B689B68BB61FB695B00032202FADC
:100D340003F3DB43BA691340BB613B68DA68FB69C0
:100D44005B0002FA03F3BA691343BB617B68BA69B7
:100D54009A607B685B68BB610122FB6902FA03F35A
:100D6400DB43BA691340BB613B685B681B0903F052
:100D74000102FB6902FA03F3BA691343BB617B689E
:100D8400BA695A603B685B6803F00303032B17D00E
:100D94007B68DB68BB61FB695B00032202FA03F337
:100DA400DB43BA691340BB613B689A68FB695B002B
:100DB40002FA03F3BA691343BB617B68BA69DA6068
:100DC4003B685B6803F00303022B23D1FB69DA0859
:100DD4007B68083253F82230BB61FB6903F00703D8
:100DE4009B000F2202FA03F3DB43BA691340BB6191
:100DF4003B681A69FB6903F007039B0002FA03F3DB
:100E0400BA691343BB61FB69DA087B680832B969C4
:100E140043F822107B681B68BB61FB695B000322FB
:100E240002FA03F3DB43BA691340BB613B685B68B6
:100E340003F00302FB695B0002FA03F3BA6913438C
:100E4400BB617B68BA691A603B685B6803F4403332
:100E5400002B00F0AE800023FB605D4B5B6C5C4AB2
:100E640043F4804353645A4B5B6C03F48043FB604C
:100E7400FB68584AFB699B08023352F82330BB6174
:100E8400FB6903F003039B000F2202FA03F3DB4325
:100E9400BA691340BB617B684F4A934225D07B6893
:100EA4004E4A93421FD07B684D4A934219D07B68C7
:100EB4004C4A934213D07B684B4A93420DD07B68D3
:100EC4004A4A934207D07B68494A934201D1062398
:100ED4000CE007230AE0052308E0042306E00323CB
:100EE40004E0022302E0012300E00023FA6902F097
:100EF400030292009340BA691343BB613549FB690D
:100F04009B080233BA6941F823203A4B1B68BB6142
:100F14003B69DB43BA691340BB613B685B6803F41C
:100F24008033002B03D0BA693B691343BB61314A58
:100F3400BB6913602F4B5B68BB613B69DB43BA69D8
:100F44001340BB613B685B6803F40033002B03D0A0
:100F5400BA693B691343BB61264ABB695360254B9D
:100F64009B68BB613B69DB43BA691340BB613B6867
:100F74005B6803F48013002B03D0BA693B69134305
:100F8400BB611C4ABB6993601A4BDB68BB613B695C
:100F9400DB43BA691340BB613B685B6803F400132D
:100FA400002B03D0BA693B691343BB61114ABB6987
:100FB400D360FB690133FB61FB690F2B7FF696AEAF
:100FC40000BF00BF2437BD465DF8047B704700BFF7
:100FD4000038024000380140000002400004024092
:100FE40000080240000C02400010024000140240BD
:100FF40000180240003C014080B584B000AF786026
:101004007B68002B01D101232BE17B6893F83D30F1
:10101400DBB2002B06D17B68002283F83C20786881
:10102400FFF72CFC7B68242283F83D207B681B6837
:101034001A687B681B6822F001021A607B681B68CF
:101044001A687B681B6842F400421A607B681B685C
:101054001A687B681B6822F400421A6001F0CEF81B
:10106400F8607B685B68814A934207D8FB68804AD2
:10107400934294BF01230023DBB206E0FB687D4A60
:10108400934294BF01230023DBB2002B01D0012340
:10109400E7E0FB68784AA2FB03239B0CBB607B68F8
:1010A4001B685B6823F03F017B681B68BA680A43CE
:1010B4005A607B681B681B6A23F03F017B685B688E
:1010C4006A4A934202D8BB68013309E0BB684FF413
:1010D400967202FB03F3694AA2FB03239B090133C3
:1010E4007A6812680B4313627B681B68DB6923F41C
:1010F4004F4222F0FF027B685B685C498B4219D83F
:10110400FB68591E7B685B685B00B1FBF3F3591CF9
:1011140040F6FC730B40002B0AD0FB68591E7B6819
:101124005B685B00B1FBF3F30133C3F30B0351E0E2
:1011340004234FE07B689B68002B11D1FB68581E89
:101144007B6859680B465B000B44B0FBF3F3013337
:10115400C3F30B03002B0CBF01230023DBB212E00B
:10116400FB68581E7B6859680B469B000B4499002A
:101174000B44B0FBF3F30133C3F30B03002B0CBF9D
:1011840001230023DBB2002B01D0012322E07B6882
:101194009B68002B0ED1FB68581E7B6859680B4670
:1011A4005B000B44B0FBF3F30133C3F30B0343F4D1
:1011B40000430FE0FB68581E7B6859680B469B0090
:1011C4000B4499000B44B0FBF3F30133C3F30B035B
:1011D40043F44043796809681343CB617B681B6817
:1011E4001B6823F0C0017B68DA697B681B6A1A43B9
:1011F4007B681B680A431A607B681B689B6823F43E
:10120400034323F0FF037A6811697A68D2681143B3
:101214007A6812680B4393607B681B68DB6823F071
:10122400FF017B685A697B689B691A437B681B686A
:101234000A43DA607B681B681A687B681B6842F0A3
:1012440001021A607B6800221A647B68202283F8FA
:101254003D207B6800221A637B68002283F83E20CD
:10126400002318461037BD4680BD00BFA08601008C
:101274007F841E00FF083D0083DE1B43D34D6210B4
:1012840080B588B002AFF860084611461A46034696
:101294007B810B463B811346FB80FFF703FC78619F
:1012A400FB6893F83D30DBB2202B40F0D9807B699A
:1012B4000093192301226D49F86800F07FFC03466E
:1012C400002B01D00223CCE0FB6893F83C30012BC7
:1012D40001D10223C5E0FB68012283F83C20FB68AE
:1012E4001B681B6803F00103012B07D0FB681B6814
:1012F4001A68FB681B6842F001021A60FB681B68ED
:101304001A68FB681B6822F400621A60FB682122D9
:1013140083F83D20FB68402283F83E20FB680022CE
:101324001A64FB683A6A5A62FB68BA8C5A85FB688D
:101334005B8D9AB2FB681A85FB684D4ADA62F888BD
:101344003A8979897B690193BB6A00930346F868FB
:1013540000F0B6FA0346002B52D0012381E07A69EB
:10136400B96AF86800F000FD0346002B0DD0FB6855
:101374001B6C042B07D1FB681B681A68FB681B688D
:1013840042F400721A6001236BE0FB685B6A1A780E
:10139400FB681B681A61FB685B6A5A1CFB685A622B
:1013A400FB681B8D013B9AB2FB681A85FB685B8D59
:1013B4009BB2013B9AB2FB685A85FB681B685B6968
:1013C40003F00403042B1BD1FB681B8D002B17D0E7
:1013D400FB685B6A1A78FB681B681A61FB685B6AC6
:1013E4005A1CFB685A62FB681B8D013B9AB2FB686E
:1013F4001A85FB685B8D9BB2013B9AB2FB685A85E8
:10140400FB681B8D002BAAD17A69B96AF86800F0D1
:10141400ECFC0346002B0DD0FB681B6C042B07D19E
:10142400FB681B681A68FB681B6842F400721A6048
:10143400012316E0FB681B681A68FB681B6842F40A
:1014440000721A60FB68202283F83D20FB680022AA
:1014540083F83E20FB68002283F83C20002300E050
:10146400022318461837BD4680BD00BF0200100095
:101474000000FFFF80B58CB002AFF860084611464B
:101484001A4603467B810B463B811346FB80FFF7DC
:1014940009FB7862FB6893F83D30DBB2202B40F007
:1014A40008827B6A0093192301227B49F86800F0C3
:1014B40085FB0346002B01D00223FBE1FB6893F874
:1014C4003C30012B01D10223F4E1FB68012283F8B3
:1014D4003C20FB681B681B6803F00103012B07D049
:1014E400FB681B681A68FB681B6842F001021A60FB
:1014F400FB681B681A68FB681B6822F400621A60A8
:10150400FB68222283F83D20FB68402283F83E20BA
:10151400FB6800221A64FB683A6B5A62FB68BA8E55
:101524005A85FB685B8D9AB2FB681A85FB685B4A37
:10153400DA62F8883A8979897B6A0193BB6B0093F4
:101544000346F86800F052FA0346002B01D0012349
:10155400B0E1FB681B8D002B13D100233B62FB68B9
:101564001B685B693B62FB681B689B693B623B6A67
:10157400FB681B681A68FB681B6842F400721A60F7
:1015840084E1FB681B8D012B1BD1FB681B681A6867
:10159400FB681B6822F480621A600023FB61FB680D
:1015A4001B685B69FB61FB681B689B69FB61FB69EA
:1015B400FB681B681A68FB681B6842F400721A60B7
:1015C40064E1FB681B8D022B1BD1FB681B681A6846
:1015D400FB681B6822F480621A60FB681B681A6847
:1015E400FB681B6842F400621A600023BB61FB685D
:1015F4001B685B69BB61FB681B689B69BB61BB695A
:1016040044E100237B61FB681B685B697B61FB68C9
:101614001B689B697B617B6938E1FB681B8D032B2D
:1016240000F2F180FB681B8D012B23D17A6AB96B20
:10163400F86800F01BFC0346002B01D0012339E1BC
:10164400FB681B681A69FB685B6AD2B21A70FB6894
:101654005B6A5A1CFB685A62FB681B8D013B9AB299
:10166400FB681A85FB685B8D9BB2013B9AB2FB68F1
:101674005A850BE1FB681B8D022B4ED17B6A0093CC
:10168400BB6B00220649F86800F098FA0346002B69
:1016940008D001230EE100BF020010000000FFFF8C
:1016A40004000100FB681B681A68FB681B6842F4AD
:1016B40000721A60FB681B681A69FB685B6AD2B225
:1016C4001A70FB685B6A5A1CFB685A62FB681B8DC4
:1016D400013B9AB2FB681A85FB685B8D9BB2013BA8
:1016E4009AB2FB685A85FB681B681A69FB685B6AD7
:1016F400D2B21A70FB685B6A5A1CFB685A62FB68B8
:101704001B8D013B9AB2FB681A85FB685B8D9BB20B
:10171400013B9AB2FB685A85B8E07B6A0093BB6BC5
:1017240000226649F86800F049FA0346002B01D00C
:101734000123BFE0FB681B681A68FB681B6822F47E
:1017440080621A60FB681B681A69FB685B6AD2B224
:101754001A70FB685B6A5A1CFB685A62FB681B8D33
:10176400013B9AB2FB681A85FB685B8D9BB2013B17
:101774009AB2FB685A857B6A0093BB6B00224F497F
:10178400F86800F01BFA0346002B01D0012391E016
:10179400FB681B681A68FB681B6842F400721A60D5
:1017A400FB681B681A69FB685B6AD2B21A70FB6833
:1017B4005B6A5A1CFB685A62FB681B8D013B9AB238
:1017C400FB681A85FB685B8D9BB2013B9AB2FB6890
:1017D4005A85FB681B681A69FB685B6AD2B21A7087
:1017E400FB685B6A5A1CFB685A62FB681B8D013BF1
:1017F4009AB2FB681A85FB685B8D9BB2013B9AB277
:10180400FB685A8542E07A6AB96BF86800F02EFBEF
:101814000346002B01D001234CE0FB681B681A69C6
:10182400FB685B6AD2B21A70FB685B6A5A1CFB687D
:101834005A62FB681B8D013B9AB2FB681A85FB68F0
:101844005B8D9BB2013B9AB2FB685A85FB681B68AF
:101854005B6903F00403042B18D1FB681B681A6945
:10186400FB685B6AD2B21A70FB685B6A5A1CFB683D
:101874005A62FB681B8D013B9AB2FB681A85FB68B0
:101884005B8D9BB2013B9AB2FB685A85FB681B8D4A
:10189400002B7FF4C2AEFB68202283F83D20FB6856
:1018A400002283F83E20FB68002283F83C200023BA
:1018B40000E0022318462837BD4680BD040001001D
:1018C40080B588B002AFF860084611461A46034650
:1018D4007B810B463B811346FB80FB681B681A68BF
:1018E400FB681B6842F480721A607B6A00933B6A4F
:1018F40000224FF00111F86800F060F90346002B54
:101904000DD0FB681B681B6803F48073B3F5807FFC
:1019140003D1FB684FF400721A6403235FE07B89F0
:10192400DBB21A46FB681B6802F0FE021A617B6A8E
:101934003A6A2D49F86800F098F90346002B01D063
:1019440001234CE000237B61FB681B685B697B61BE
:10195400FB681B689B697B617B697A6A396AF868F2
:1019640000F002FA0346002B0DD0FB681B6C042B1D
:1019740007D1FB681B681A68FB681B6842F4007295
:101984001A6001232BE0FB88012B05D13B89DAB2D5
:10199400FB681B681A6121E03B891B0A9BB2DAB21F
:1019A400FB681B681A617A6A396AF86800F0DCF926
:1019B4000346002B0DD0FB681B6C042B07D1FB687E
:1019C4001B681A68FB681B6842F400721A600123E2
:1019D40005E03B89DAB2FB681B681A6100231846EC
:1019E4001837BD4680BD00BF0200010080B588B035
:1019F40002AFF860084611461A4603467B810B463F
:101A04003B811346FB80FB681B681A68FB681B68F4
:101A140042F480621A60FB681B681A68FB681B68E2
:101A240042F480721A607B6A00933B6A00224FF092
:101A34000111F86800F0C2F80346002B0DD0FB68D2
:101A44001B681B6803F48073B3F5807F03D1FB68C4
:101A54004FF400721A640323AAE07B89DBB21A46AE
:101A6400FB681B6802F0FE021A617B6A3A6A5249FB
:101A7400F86800F0FAF80346002B01D0012397E040
:101A840000237B61FB681B685B697B61FB681B68E7
:101A94009B697B617B697A6A396AF86800F064F94A
:101AA4000346002B0DD0FB681B6C042B07D1FB688D
:101AB4001B681A68FB681B6842F400721A600123F1
:101AC40076E0FB88012B05D13B89DAB2FB681B6801
:101AD4001A6121E03B891B0A9BB2DAB2FB681B68DE
:101AE4001A617A6A396AF86800F03EF90346002BF5
:101AF4000DD0FB681B6C042B07D1FB681B681A68AC
:101B0400FB681B6842F400721A60012350E03B89B1
:101B1400DAB2FB681B681A617A6A396AF86800F0FD
:101B240023F90346002B0DD0FB681B6C042B07D153
:101B3400FB681B681A68FB681B6842F400721A6031
:101B4400012335E0FB681B681A68FB681B6842F4D4
:101B540080721A607B6A00933B6A00224FF0011185
:101B6400F86800F02BF80346002B0DD0FB681B68C7
:101B74001B6803F48073B3F5807F03D1FB684FF4D3
:101B840000721A64032313E07B89DBB243F0010380
:101B9400DAB2FB681B681A617B6A3A6A0649F8681C
:101BA40000F063F80346002B01D0012300E000237A
:101BB40018461837BD4680BD0200010080B584B0C8
:101BC40000AFF860B9603B601346FB7125E03B68E9
:101BD400B3F1FF3F21D0FEF765FF0246BB69D31A7C
:101BE4003A689A4202D33B68002B16D1FB68002264
:101BF4001A63FB68202283F83D20FB68002283F8E7
:101C04003E20FB681B6C43F02002FB681A64FB68EF
:101C1400002283F83C20012323E0BB681B0CDBB2C9
:101C2400012B0DD1FB681B685B69DA43BB68134069
:101C34009BB2002B0CBF01230023DBB21A460CE03D
:101C4400FB681B689B69DA43BB6813409BB2002B9B
:101C54000CBF01230023DBB21A46FB799A42B6D0AB
:101C6400002318461037BD4680BD80B584B000AF50
:101C7400F860B9607A603B6051E0FB681B685B699F
:101C840003F48063B3F5806F23D1FB681B681A6883
:101C9400FB681B6842F400721A60FB681B686FF4EF
:101CA40080625A61FB6800221A63FB68202283F871
:101CB4003D20FB68002283F83E20FB681B6C43F048
:101CC4000402FB681A64FB68002283F83C200123A9
:101CD40046E07B68B3F1FF3F21D0FEF7E3FE024606
:101CE4003B68D31A7A689A4202D37B68002B16D1D8
:101CF400FB6800221A63FB68202283F83D20FB68FE
:101D0400002283F83E20FB681B6C43F02002FB6832
:101D14001A64FB68002283F83C20012320E0BB689E
:101D24001B0CDBB2012B0CD1FB681B685B69DA432B
:101D3400BB6813409BB2002B14BF01230023DBB20A
:101D44000BE0FB681B689B69DA43BB6813409BB2DA
:101D5400002B14BF01230023DBB2002B8DD1002301
:101D640018461037BD4680BD80B584B000AFF8601A
:101D7400B9607A602DE0F86800F0CEF80346002BD5
:101D840001D001232DE0BB68B3F1FF3F21D0FEF762
:101D940089FE02467B68D31ABA689A4202D3BB68AA
:101DA400002B16D1FB6800221A63FB68202283F8FB
:101DB4003D20FB68002283F83E20FB681B6C43F047
:101DC4002002FB681A64FB68002283F83C2001238C
:101DD40007E0FB681B685B6903F08003802BCAD1B2
:101DE400002318461037BD4680BD80B584B000AFCF
:101DF400F860B9607A602DE0F86800F08DF8034669
:101E0400002B01D001232DE0BB68B3F1FF3F21D0AB
:101E1400FEF748FE02467B68D31ABA689A4202D398
:101E2400BB68002B16D1FB6800221A63FB682022D2
:101E340083F83D20FB68002283F83E20FB681B6C7E
:101E440043F02002FB681A64FB68002283F83C20FC
:101E5400012307E0FB681B685B6903F00403042BA0
:101E6400CAD1002318461037BD4680BD80B584B062
:101E740000AFF860B9607A6042E0FB681B685B6998
:101E840003F01003102B19D1FB681B686FF01002CC
:101E94005A61FB6800221A63FB68202283F83D2004
:101EA400FB68002283F83E20FB681A6CFB681A6406
:101EB400FB68002283F83C20012329E0FEF7F2FDB1
:101EC40002467B68D31ABA689A4202D3BB68002BD5
:101ED40016D1FB6800221A63FB68202283F83D2098
:101EE400FB68002283F83E20FB681B6C43F0200251
:101EF400FB681A64FB68002283F83C20012307E096
:101F0400FB681B685B6903F04003402BB5D10023D9
:101F140018461037BD4680BD80B483B000AF7860EA
:101F24007B681B685B6903F48063B3F5806F1BD126
:101F34007B681B686FF480625A617B6800221A63B5
:101F44007B68202283F83D207B68002283F83E20B2
:101F54007B681B6C43F004027B681A647B68002274
:101F640083F83C20012300E0002318460C37BD46CB
:101F74005DF8047B7047000080B582B000AF002399
:101F84007B6000233B60204B1B6C1F4A43F0805353
:101F940013641D4B1B6C03F080533B603B681B4B6D
:101FA40001221A60FEF77EFD786009E0FEF77AFDF3
:101FB40002467B68D31AB3F57A7F01D903231FE065
:101FC400134B5B6803F48033B3F5803FEED1114BC0
:101FD40001221A60FEF766FD786009E0FEF762FDF3
:101FE40002467B68D31AB3F57A7F01D9032307E04D
:101FF400074B5B6803F40033B3F5003FEED10023D5
:1020040018460837BD4680BD0038024040000E42E5
:102014000070004044000E4280B584B000AF786088
:1020240039607B68002B01D10123CCE0684B1B682D
:1020340003F00F033A689A420CD9654B3A68D2B25E
:102044001A70634B1B6803F00F033A689A4201D07D
:102054000123B8E07B681B6803F00203002B20D047
:102064007B681B6803F00403002B05D0594B9B6865
:10207400584A43F4E05393607B681B6803F00803F9
:10208400002B05D0534B9B68524A43F46043936042
:10209400504B9B6823F0F0027B689B684D491343C7
:1020A4008B607B681B6803F00103002B44D07B68C2
:1020B4005B68012B07D1474B1B6803F40033002BEB
:1020C40019D101237FE07B685B68022B03D07B6816
:1020D4005B68032B07D13F4B1B6803F00073002B95
:1020E40009D101236FE03B4B1B6803F00203002B73
:1020F40001D1012367E0374B9B6823F003027B681F
:102104005B68344913438B60FEF7CCFCF8600AE04B
:10211400FEF7C8FC0246FB68D31A41F288329342A8
:1021240001D903234FE02B4B9B6803F00C027B681F
:102134005B689B009A42EBD1254B1B6803F00F03AD
:102144003A689A420CD2224B3A68D2B21A70204BA7
:102154001B6803F00F033A689A4201D0012332E06E
:102164007B681B6803F00403002B08D0194B9B68A1
:1021740023F4E0527B68DB68164913438B607B6869
:102184001B6803F00803002B09D0124B9B6823F44F
:1021940060427B681B69DB000E4913438B6000F0CF
:1021A40041F802460B4B9B681B0903F00F030A49D5
:1021B400CB5C22FA03F3094A1360094B1B681846E7
:1021C400FEF72CFC002318461037BD4680BD00BF27
:1021D400003C024000380240382B00080C0000206C
:1021E4001000002080B400AF034B1B681846BD46A6
:1021F4005DF8047B704700BF0C00002080B500AF81
:10220400FFF7F0FF0246054B9B689B0A03F00703A8
:102214000349CB5C22FA03F3184680BD0038024020
:10222400482B00082DE9B04F88B000AF00237B6134
:102234000023FB6100233B610023FB600023BB619F
:10224400CE4B9B6803F00C030C2B00F28D8101A292
:1022540052F823F08D2200086D2500086D25000832
:102264006D250008932200086D2500086D250008DF
:102274006D250008992200086D2500086D250008C9
:102284006D2500080D240008BD4BBB616FE1BD4BFB
:10229400BB616CE1B94B5B6803F03F037B61B74BF7
:1022A4005B6803F48003002B53D0B44B5B689B0939
:1022B4001A464FF0000340F2FF104FF0000102EA0B
:1022C40000043C600B407B60D7E90045204629466A
:1022D4004FF000024FF000034B0143EAD063420188
:1022E400104619462346C01A2B4661EB03014FF0F2
:1022F40000024FF000038B0143EA90638201121A3B
:1023040063EB01034FF000004FF00001D90041EAF4
:102314005271D00002460B4621465218294643EB1F
:1023240001010B464FF000004FF00001590241EA51
:10233400D251500202460B46104619467B691A4692
:102344004FF00003FDF75CFF02460B461346FB61AA
:102354004CE08A4B5B689B091A464FF0000340F23D
:10236400FF104FF0000102EA000A03EA010B504695
:1023740059464FF000024FF000034B0143EAD0638B
:10238400420110461946B0EB0A0061EB0B014FF015
:1023940000024FF000038B0143EA90638201121A9A
:1023A40063EB01034FF000004FF00001D90041EA54
:1023B4005271D00002460B4612EB0A0243EB0B03A8
:1023C4004FF000004FF00001990241EA925190024F
:1023D40002460B46104619467B691A464FF0000325
:1023E400FDF70EFF02460B461346FB61634B5B6829
:1023F4001B0C03F0030301335B003B61FA693B6987
:10240400B2FBF3F3BB61B2E05C4B5B6803F03F03E8
:102414007B615A4B5B6803F48003002B4DD0574B10
:102424005B689B091A464FF0000340F2FF104FF01F
:10243400000102EA000803EA0109404649464FF058
:1024440000024FF000034B0143EAD06342011046FF
:102454001946B0EB080061EB09014FF000024FF0A0
:1024640000038B0143EA90638201121A63EB0103B8
:102474004FF000004FF00001D90041EA5271D00042
:1024840002460B4612EB080243EB09034FF000002F
:102494004FF00001590241EAD251500202460B4664
:1024A400104619467B691A464FF00003FDF7A8FE53
:1024B40002460B461346FB614AE0304B5B689B09BE
:1024C4001A464FF0000340F2FF104FF0000102EAF9
:1024D400000403EA0105204629464FF000024FF0AC
:1024E40000034B0143EAD063420110461946001B26
:1024F40061EB05014FF000024FF000038B0143EA4A
:1025040090638201121A63EB01034FF000004FF055
:102514000001D90041EA5271D00002460B4612195B
:1025240045EB03034FF000004FF00001990241EA2C
:102534009251900202460B46104619467B691A4690
:102544004FF00003FDF75CFE02460B461346FB61A9
:102554000A4B5B681B0F03F00703FB60FA69FB6817
:10256400B2FBF3F3BB6102E0054BBB6100BFBB6987
:1025740018462037BD46BDE8B08F00BF0038024082
:102584000024F40000127A0080B586B000AF7860B1
:102594007B68002B01D101238DE27B681B6803F06B
:1025A4000103002B00F08380944B9B6803F00C0321
:1025B400042B19D0914B9B6803F00C03082B06D114
:1025C4008E4B5B6803F48003B3F5800F0CD08B4B08
:1025D4009B6803F00C030C2B12D1884B5B6803F44B
:1025E4008003B3F5800F0BD1844B1B6803F40033D5
:1025F400002B5BD07B685B68002B57D101235AE228
:102604007B685B68B3F5803F06D17C4B1B687B4AD3
:1026140043F4803313601DE07B685B68B3F5A02F3F
:102624000CD1764B1B68754A43F480231360734BBB
:102634001B68724A43F4803313600BE06F4B1B68D2
:102644006E4A23F4803313606C4B1B686B4A23F48B
:10265400802313607B685B68002B13D0FEF722FA9B
:10266400386108E0FEF71EFA02463B69D31A642B70
:1026740001D903231FE2614B1B6803F40033002BD1
:10268400F0D014E0FEF70EFA386108E0FEF70AFA1B
:1026940002463B69D31A642B01D903230BE2574B3F
:1026A4001B6803F40033002BF0D100E000BF7B680B
:1026B4001B6803F00203002B6FD0504B9B6803F0A0
:1026C4000C03002B17D04D4B9B6803F00C03082B15
:1026D40005D14A4B5B6803F48003002B0BD0474BB6
:1026E4009B6803F00C030C2B1CD1444B5B6803F474
:1026F4008003002B16D1414B1B6803F00203002B0F
:1027040005D07B68DB68012B01D00123D3E13B4B6F
:102714001B6823F0F8027B681B69DB00374913430D
:102724000B603AE07B68DB68002B20D0344B01223D
:102734001A60FEF7B7F9386108E0FEF7B3F902460C
:102744003B69D31A022B01D90323B4E12B4B1B6839
:1027540003F00203002BF0D0284B1B6823F0F8028F
:102764007B681B69DB00254913430B6015E0244B90
:1027740000221A60FEF796F9386108E0FEF792F934
:1027840002463B69D31A022B01D9032393E11B4B65
:102794001B6803F00203002BF0D17B681B6803F075
:1027A4000803002B36D07B685B69002B16D0154BD1
:1027B40001221A60FEF776F9386108E0FEF772F933
:1027C40002463B69D31A022B01D9032373E10B4B55
:1027D4005B6F03F00203002BF0D01BE0094B0022D7
:1027E4001A60FEF75FF938610EE0FEF75BF9024606
:1027F4003B69D31A022B07D903235CE1003802405A
:1028040000004742800E47428A4B5B6F03F002038D
:10281400002BEAD17B681B6803F00403002B00F053
:1028240097800023FB75834B1B6C03F08053002BB4
:102834000FD10023BB607F4B1B6C7E4A43F0805357
:1028440013647C4B1B6C03F08053BB60BB68012397
:10285400FB75794B1B6803F48073002B18D1764BFE
:102864001B68754A43F480731360FEF71BF93861E3
:1028740008E0FEF717F902463B69D31A022B01D987
:10288400032318E16C4B1B6803F48073002BF0D016
:102894007B689B68012B06D1664B1B6F654A43F02E
:1028A400010313671CE07B689B68052B0CD1614B0B
:1028B4001B6F604A43F0040313675E4B1B6F5D4A52
:1028C40043F0010313670BE05A4B1B6F594A23F083
:1028D40001031367574B1B6F564A23F00403136716
:1028E4007B689B68002B15D0FEF7DCF838610AE0A2
:1028F400FEF7D8F802463B69D31A41F28832934274
:1029040001D90323D7E04B4B1B6F03F00203002BC9
:10291400EED014E0FEF7C6F838610AE0FEF7C2F81C
:1029240002463B69D31A41F28832934201D9032308
:10293400C1E0404B1B6F03F00203002BEED1FB7D83
:10294400012B05D13B4B1B6C3A4A23F08053136493
:102954007B689B69002B00F0AD80364B9B6803F0CD
:102964000C03082B60D07B689B69022B45D1334B49
:1029740000221A60FEF796F8386108E0FEF792F834
:1029840002463B69D31A022B01D9032393E0294B56
:102994001B6803F00073002BF0D17B68DA697B6855
:1029A4001B6A1A437B685B6A9B011A437B689B6AB8
:1029B4005B08013B1B041A437B68DB6A1B061A4352
:1029C4007B681B6B1B071B4913434B601B4B01228A
:1029D4001A60FEF767F8386108E0FEF763F802460C
:1029E4003B69D31A022B01D9032364E0114B1B6802
:1029F40003F00073002BF0D05CE0104B00221A604F
:102A0400FEF750F8386108E0FEF74CF802463B69DF
:102A1400D31A022B01D903234DE0064B1B6803F0A4
:102A24000073002BF0D145E07B689B69012B07D133
:102A3400012340E00038024000700040600047423B
:102A44001F4B5B68FB607B689B69012B30D0FB6884
:102A540003F480027B68DB699A4229D1FB6803F0A6
:102A64003F027B681B6A9A4222D1FA6847F6C07318
:102A740013407A68526A9201934219D1FB6803F4B5
:102A840040327B689B6A5B08013B1B049A420FD16E
:102A9400FB6803F070627B68DB6A1B069A4207D10D
:102AA400FB6803F0E0427B681B6B1B079A4201D072
:102AB400012300E0002318461837BD4680BD00BF3F
:102AC4000038024070B50D4D0D4C641BA410002657
:102AD400A64209D10B4D0C4C00F020F8641BA41045
:102AE4000026A64205D170BD55F8043B984701362F
:102AF400EEE755F8043B98470136F2E7582B0008F7
:102B0400582B0008582B00085C2B0008024403468D
:102B1400934200D1704703F8011BF9E7F8B500BFF1
:102B2400F8BC08BC9E467047F8B500BFF8BC08BCAA
:042B34009E46704702
:102B38000000000000000000010203040607080965
:082B480000000000010203047B
:082B5000E4D6FF7F0100000044
:042B5800E901000887
:042B5C00C5010008A7
:102B600048656C6C6F000000486900000024F400A8
:082B700010000000010000004C
:04000005080009895D
:00000001FF
